{
  "transactions": [
    {
      "hash": "0x1fe055977989d22f16d4afed1abc0c6dc883b2742ee2250c0c8a3f2bc1911f27",
      "transactionType": "CALL",
      "contractName": null,
      "contractAddress": "0x779877a7b0d9e8603169ddbd7836e478b4624789",
      "function": "transferAndCall(address,uint256,bytes)",
      "arguments": [
        "0x9DdfaCa8183c41ad55329BdeeD9F6A8d53168B1B",
        "3000000000000000000",
        "0x0931b8effe86ffd52403da61a3e451ae750300d43266ea84c5821b6ce2491d35"
      ],
      "transaction": {
        "from": "0xd4421afbf7378ca369268ef85a1de24ab64ef3c1",
        "to": "0x779877a7b0d9e8603169ddbd7836e478b4624789",
        "gas": "0x1603d",
        "value": "0x0",
        "input": "0x4000aea00000000000000000000000009ddfaca8183c41ad55329bdeed9f6a8d53168b1b00000000000000000000000000000000000000000000000029a2241af62c0000000000000000000000000000000000000000000000000000000000000000006000000000000000000000000000000000000000000000000000000000000000200931b8effe86ffd52403da61a3e451ae750300d43266ea84c5821b6ce2491d35",
        "nonce": "0x9",
        "chainId": "0xaa36a7"
      },
      "additionalContracts": [],
      "isFixedGasLimit": false
    }
  ],
  "receipts": [
    {
      "status": "0x1",
      "cumulativeGasUsed": "0x8efa38",
      "logs": [
        {
          "address": "0x779877a7b0d9e8603169ddbd7836e478b4624789",
          "topics": [
            "0xddf252ad1be2c89b69c2b068fc378daa952ba7f163c4a11628f55a4df523b3ef",
            "0x000000000000000000000000d4421afbf7378ca369268ef85a1de24ab64ef3c1",
            "0x0000000000000000000000009ddfaca8183c41ad55329bdeed9f6a8d53168b1b"
          ],
          "data": "0x00000000000000000000000000000000000000000000000029a2241af62c0000",
          "blockHash": "0x8ac105e8429b1147dc59f24edda517028e89804ecb03ffe5f32d8eb71432c27c",
          "blockNumber": "0x753514",
          "transactionHash": "0x1fe055977989d22f16d4afed1abc0c6dc883b2742ee2250c0c8a3f2bc1911f27",
          "transactionIndex": "0x6c",
          "logIndex": "0xab",
          "removed": false
        },
        {
          "address": "0x779877a7b0d9e8603169ddbd7836e478b4624789",
          "topics": [
            "0xe19260aff97b920c7df27010903aeb9c8d2be5d310a2c67824cf3f15396e4c16",
            "0x000000000000000000000000d4421afbf7378ca369268ef85a1de24ab64ef3c1",
            "0x0000000000000000000000009ddfaca8183c41ad55329bdeed9f6a8d53168b1b"
          ],
          "data": "0x00000000000000000000000000000000000000000000000029a2241af62c0000000000000000000000000000000000000000000000000000000000000000004000000000000000000000000000000000000000000000000000000000000000200931b8effe86ffd52403da61a3e451ae750300d43266ea84c5821b6ce2491d35",
          "blockHash": "0x8ac105e8429b1147dc59f24edda517028e89804ecb03ffe5f32d8eb71432c27c",
          "blockNumber": "0x753514",
          "transactionHash": "0x1fe055977989d22f16d4afed1abc0c6dc883b2742ee2250c0c8a3f2bc1911f27",
          "transactionIndex": "0x6c",
          "logIndex": "0xac",
          "removed": false
        },
        {
          "address": "0x9ddfaca8183c41ad55329bdeed9f6a8d53168b1b",
          "topics": [
            "0x1ced9348ff549fceab2ac57cd3a9de38edaaab274b725ee82c23e8fc8c4eec7a",
            "0x0931b8effe86ffd52403da61a3e451ae750300d43266ea84c5821b6ce2491d35"
          ],
          "data": "0x0000000000000000000000000000000000000000000000008ac7230489e80000000000000000000000000000000000000000000000000000b469471f80140000",
          "blockHash": "0x8ac105e8429b1147dc59f24edda517028e89804ecb03ffe5f32d8eb71432c27c",
          "blockNumber": "0x753514",
          "transactionHash": "0x1fe055977989d22f16d4afed1abc0c6dc883b2742ee2250c0c8a3f2bc1911f27",
          "transactionIndex": "0x6c",
          "logIndex": "0xad",
          "removed": false
        }
      ],
      "logsBloom": "0x00080004000000000000000000000000000000000020000000000000020000000000000000000000000000000000000000000000000000000000000000000000000000000000000000000008000000000000000000000000000020000020000008000000000000000000000000000000000400000000000000000010000040000000000000000000001000010004804000000020000000000000000000000000008000000000000000000000010000000000000000000000000004000000000000000002000000000000000000000000000000000000000100000000000000000010000000000000800000000000000000000000000000000000000000000000",
      "type": "0x2",
      "transactionHash": "0x1fe055977989d22f16d4afed1abc0c6dc883b2742ee2250c0c8a3f2bc1911f27",
      "transactionIndex": "0x6c",
      "blockHash": "0x8ac105e8429b1147dc59f24edda517028e89804ecb03ffe5f32d8eb71432c27c",
      "blockNumber": "0x753514",
      "gasUsed": "0xf0d9",
      "effectiveGasPrice": "0xa5a4a9efb",
      "from": "0xd4421afbf7378ca369268ef85a1de24ab64ef3c1",
      "to": "0x779877a7b0d9e8603169ddbd7836e478b4624789",
      "contractAddress": null
    }
  ],
  "libraries": [],
  "pending": [],
  "returns": {},
  "timestamp": 1739215802,
  "chain": 11155111,
  "commit": "5af2b48"
}